:020000040800F2
:10000000C03000209D010008851900086317000812
:100010008119000859020008A11F00080000000013
:1000200000000000000000000000000005010008C2
:100030005D0200080000000049010008BD19000829
:10004000B7010008B7010008B7010008B7010008B0
:10005000B7010008B7010008B7010008B7010008A0
:10006000B7010008B7010008B7010008B701000890
:10007000B7010008B7010008B7010008B701000880
:10008000B7010008B7010008B7010008B701000870
:10009000B7010008B7010008B7010008B701000860
:1000A000B7010008B7010008B7010008B701000850
:1000B000B7010008B7010008B7010008B701000840
:1000C000B7010008B7010008B7010008B701000830
:1000D000B7010008B7010008911F0008B701000828
:1000E0005F020008B7010008B7010008DFF810D070
:1000F00000F0A0F8004800478D210008AFF3008011
:10010000C0300020224B19680868B0E8F00F80F377
:100110000988BFF36F8F4FF0000080F311884EF015
:100120000D0E70470000000006480068006880F36C
:10013000088862B661B6BFF34F8FBFF36F8F00DFE1
:1001400000BF00BF08ED00E0EFF30980BFF36F8F41
:100150000F4B1A6820E9F00F106008B54FF05000FF
:1001600080F31188BFF34F8FBFF36F8F02F006FD4E
:100170004FF0000080F31188BDE808401968086856
:10018000B0E8F00F80F30988BFF36F8F704700BFAE
:1001900014000020EFF305807047000006488047F8
:1001A00006480047FEE7FEE7FEE7FEE7FEE7FEE75C
:1001B000FEE7FEE7FEE7FEE72F1A0008ED00000865
:1001C00040EA01039B0703D009E008C9121F08C0D9
:1001D000042AFAD203E011F8013B00F8013B521E59
:1001E000F9D27047D2B201E000F8012B491EFBD2D0
:1001F00070470022F6E710B513460A460446194632
:10020000FFF7F0FF204610BD30B50B460146002039
:100210002022012409E021FA02F59D4205D303FAC8
:1002200002F5491B04FA02F52844151EA2F1010249
:10023000F1DC30BD064C074D06E0E06840F00103FC
:1002400094E8070098471034AC42F6D3FFF752FF0A
:10025000A8310008C831000800BFFEE7704710B59C
:100260004FF4004000F0A8F810BD72B600BFFEE7E2
:100270000146002291F82100022808D0042088635A
:1002800000BF002081F8200000BF012070470868EF
:10029000006820F00E000B6818600868006820F005
:1002A00001000B68186091F8403001209840CB6B3A
:1002B0005860012081F8210000BF002081F8200053
:1002C00000BF1046E2E7000070B50446002594F830
:1002D0002100022803D00420A063012548E0206803
:1002E000006820F00E00216808602068006820F097
:1002F0000100216808601F492068884201D101205F
:1003000026E01C4914312068884201D110201FE0EA
:10031000184928312068884201D1801518E0154914
:100320003C312068884201D1801411E011495031DC
:100330002068884202D14FF4803009E00D496431D1
:100340002068884202D14FF4801001E04FF08070A5
:10035000084908394860012084F8210000BF0020C6
:1003600084F8200000BF606B10B12046616B8847A5
:10037000284670BD0800024010B50446B4F5004F91
:1003800005D103A001F00EFE02200A49087010BD3D
:1003900072756E20657874692C765461736B5F504A
:1003A00072696F7269747920736574206173203289
:1003B0000D0A00009C00002010B5044604480068A7
:1003C000204020B1024804602046FFF7D5FF10BD51
:1003D000140401402DE9F8470346002294466EE1DB
:1003E0004FF0010808FA02F4D1F8008008EA04008E
:1003F000A0427DD1DFF8DCA2D1F80480A8EB0A0985
:10040000D0453AD014DCB8F1030F50D009DCB8F174
:10041000000F31D0B8F1010F1CD0B8F1020F49D153
:1004200020E0B8F1110F18D0B8F1120F42D11EE040
:10043000B9F5881F25D006DCB9F5803F20D0B9F585
:10044000801F37D11AE0B9F5001F18D0B9F5041F85
:1004500030D117E0D1F80CC02DE0D1F80C8008F1B4
:10046000040C28E0D1F80C8008F1080C23E0D1F846
:100470000C8008F10C0C1EE000BF00BF00BF00BFE5
:1004800000BF00BFD1F80880B8F1000F02D14FF0D3
:10049000040C0BE0D1F80880B8F1010F03D14FF044
:1004A000080C1C6102E04FF0080C5C6103E04FF0A7
:1004B000000C00E000BF00BFFF2801D8984601E013
:1004C00003F104084646FF2802D84FEA820803E0F9
:1004D000A2F108084FEA88084746D6F800804FF096
:1004E0000F0909FA07F928EA09080CFA07F900E0E8
:1004F00088E048EA0908C6F80080D1F8048008F0CE
:100500008058B8F1805F7DD100BFDFF8CC81D8F88A
:10051000188048F00108DFF8C091C9F81880C84673
:10052000D8F8188008F00108CDF8008000BF00BF9F
:100530004FEAB9384FEA920958F829504FEA8278C1
:100540004FEA18794FF00F0808FA09F825EA08056C
:10055000DFF88881434502D14FF0000816E0DFF84C
:100560008081434502D14FF001080FE0DFF874812C
:10057000434502D14FF0020808E0DFF86C814345A3
:1005800002D14FF0030801E04FF004084FEA8279EE
:100590004FEA197908FA09F848EA0505DFF84C81AD
:1005A0004FEA920948F82950D1F8048008F48018DD
:1005B000B8F5801F0AD1DFF83881D8F8008048EA02
:1005C0000008DFF82C91C9F8008009E0DFF82081ED
:1005D000D8F8008028EA0008DFF81491C9F80080F4
:1005E000D1F8048008F40018B8F5001F10D1DFF826
:1005F000008108F10408D8F8008048EA0008DFF814
:10060000F09000E05AE009F10409C9F800800DE01B
:10061000DFF8DC8008F10408D8F8008028EA000838
:10062000DFF8CC9009F10409C9F80080D1F8048002
:1006300008F40038B8F5003F0ED1DFF8B480A8F117
:100640000408D8F8008048EA0008DFF8A490A9F16F
:100650000409C9F800800DE0DFF89480A8F10408CF
:10066000D8F8008028EA0008DFF88490A9F104098E
:10067000C9F80080D1F8048008F48038B8F5803FCC
:100680000ED1DFF86C80A8F10808D8F8008048EA9D
:100690000008DFF85C90A9F10809C9F800800DE0B6
:1006A000DFF84C80A8F10808D8F8008028EA000894
:1006B000DFF83C90A9F10809C9F80080521CD1F874
:1006C000008028FA02F8B8F1000F7FF489AEBDE887
:1006D000F8870000000011100010024000080140DF
:1006E000000C0140001001400014014008000140CE
:1006F00008040140024693680B400BB1012000E062
:10070000002070470AB1016101E00B0403617047EA
:10071000014800687047000004000020034800689A
:100720000349097808440149086070470400002023
:100730000C00002010B50848006840F01000064981
:100740000860032000F0AEF80F2000F007F800F07A
:100750002BF8002010BD00000020024070B50446B8
:100760000E4800784FF47A71B1FBF0F00C4909683B
:10077000B1FBF0F5284600F0FFFB08B1012070BD89
:10078000102C07D200222146501E00F04DF80548DB
:10079000046001E00120F2E70020F0E70C000020F7
:1007A000100000200800002008B500BF1448806930
:1007B00040F00100124988610846806900F001009C
:1007C000009000BF00BF00BF0846C06940F08050E5
:1007D000C8610846C06900F08050009000BF00BFAB
:1007E00000220F21901E00F01FF800BF0549486845
:1007F00020F0E06040F00070486000BF08BD0000DD
:10080000001002400000014001460846002809DBB4
:1008100000F01F0301229A4043099B0003F1E023EB
:10082000C3F8002100BF70472DE9F05F80460D46F8
:100830001646002701F0C6FB074639462A463346CE
:1008400001F00700C0F1070ABAF1040F02D94FF016
:10085000040A01E0C0F1070AD14600F1040ABAF126
:10086000070F02D24FF0000A01E0A0F1030AD446BC
:100870004FF0010A0AFA09FAAAF1010A0AEA020A81
:100880000AFA0CFA4FF0010B0BFA0CFBABF1010B5F
:100890000BEA030B4AEA0B042146404601F09AFB9F
:1008A000BDE8F09F00BF00F00702064B19684FF645
:1008B000FF031940044B0B4343EA0221014B19602B
:1008C00000BF70470CED00E00000FA0570B504466B
:1008D0000D460CB9012070BD5A48006800F00700B1
:1008E000A8420ED25748006820F007002843554917
:1008F00008600846006800F00700A84201D0012007
:10090000E9E7207800F0020002281DD1207800F0ED
:100910000400042805D14C48406840F4E0604A498E
:100920004860207800F00800082805D14648406853
:1009300040F46050444948604348406820F0F0006B
:10094000A168084340494860207800F0010078B36E
:100950006068012806D13C48006800F4003090B976
:100960000120B8E76068022806D13748006800F027
:10097000007040B90120AEE73348006800F0020083
:1009800008B90120A7E73048406820F003006168FB
:1009900008432D494860FFF7BBFE064609E0FFF714
:1009A000B7FE801B41F28831884202D9032092E7CA
:1009B00007E02548406800F00C006168B0EB810F4B
:1009C000EDD12048006800F00700A8420ED91D486C
:1009D000006820F0070028431A49086008460068AC
:1009E00000F00700A84201D0012074E7207800F051
:1009F0000400042807D11448406820F4E060E1684E
:100A0000084311494860207800F00800082808D100
:100A10000D48406820F46050216940EAC1000A494D
:100A2000486000F03FF808494968C1F30311074ADC
:100A3000515CC8400649086006480068FFF78EFE12
:100A4000002048E7002002400010024082310008E8
:100A500010000020080000200148006870470000D6
:100A60001000002000B5FFF7F7FF04494968C1F303
:100A70000221034A515CC84000BD00000010024042
:100A80009231000800B5FFF7E7FF04494968C1F358
:100A9000C221034A515CC84000BD00000010024062
:100AA0009231000870B500210022002400230020AC
:100AB000134D696801F00C05F5B1042D02D0082D25
:100AC00019D101E00F4819E00F4DC1F38346AB5D2A
:100AD00001F4803555B10A4D6D68C5F340450B4EA4
:100AE000725D084D5D43B5FBF2F402E0084D03FB77
:100AF00005F4204602E000BF024800BF00BF70BD01
:100B00000010024000127A007031000880310008A5
:100B100000093D00F8B504460CB90120F8BD207865
:100B200000F00100002878D0F848406800F00C0080
:100B300004280CD0F548406800F00C00082811D1BA
:100B4000F248406800F48030B0F5803F0AD1EF48A9
:100B5000006800F4003000285FD0606800285CD195
:100B60000120DBE700BF6068B0F5803F06D1E748B1
:100B7000006840F48030E549086028E0606858B9B2
:100B8000E248006820F48030E049086008460068C8
:100B900020F4802008601AE06068B0F5A02F0BD127
:100BA000DA48006840F48020D849086008460068A8
:100BB00040F4803008600AE0D448006820F48030B7
:100BC000D24908600846006820F48020086000BF11
:100BD000606888B1FFF79CFD054606E0FFF798FDC9
:100BE000401B642801D9032098E7C848006800F436
:100BF00000300028F2D010E0FFF78AFD054606E03D
:100C0000FFF786FD401B642801D9032086E7BF4813
:100C1000006800F400300028F2D1207800F00200D3
:100C2000022857D1B948406800F00C0050B1B748CD
:100C3000406800F00C00082818D1B448406800F45F
:100C4000803098B9B148006800F0020020B12069F6
:100C5000012801D0012061E7AC48006820F0F800CD
:100C6000616940EAC100A949086033E02069E8B140
:100C70000120A7490860FFF74BFD054606E0FFF796
:100C800047FD401B022801D9032047E79F48006821
:100C900000F002000028F2D09C48006820F0F80024
:100CA000616940EAC1009949086013E00020984951
:100CB0000860FFF72DFD054606E0FFF729FD401B04
:100CC000022801D9032029E79048006800F00200BB
:100CD0000028F2D1207800F0080008282DD1A06962
:100CE000B8B101208B490860FFF712FD054606E008
:100CF000FFF70EFD401B022801D903200EE78348B1
:100D0000406A00F002000028F2D0012000F03CFE12
:100D100013E000207F490860FFF7FAFC054606E073
:100D2000FFF7F6FC401B022801D90320F6E67748BE
:100D3000406A00F002000028F2D1207800F00400A0
:100D4000042873D100277148C06900F0805070B941
:100D500000BF6E48C06940F080506C49C8610846C9
:100D6000C06900F08050009000BF00BF01276A48B2
:100D7000006800F48070B0B96748006840F4807083
:100D800065490860FFF7C4FC054606E0FFF7C0FCB4
:100D9000401B642801D90320C0E65F48006800F4C6
:100DA00080700028F2D000BFE068012806D15748C3
:100DB000006A40F001005549086227E0E06858B930
:100DC0005248006A20F00100504908620846006A53
:100DD00020F00400086219E0E06805280BD14B48B8
:100DE000006A40F00400494908620846006A40F081
:100DF000010008620AE04548006A20F0010043490A
:100E000008620846006A20F00400086200BFE0683B
:100E1000A0B1FFF77DFC054609E0FFF779FC401B18
:100E200041F28831884202D9032077E622E0374830
:100E3000006A00F002000028EFD012E0FFF768FC23
:100E4000054608E0FFF764FC401B41F28831884208
:100E500001D9032062E62D48006A00F00200002854
:100E6000F0D1012F05D12948C06920F080502749D1
:100E7000C86100BFE069C8B32448406800F00C00B6
:100E8000082860D0E069022848D10020204908667F
:100E9000FFF73EFC054606E0FFF73AFC401B022840
:100EA00001D903203AE61948006800F000700028D4
:100EB000F2D1206AB0F5803F07D11448406820F491
:100EC0000030A168084311494860D4E9080108438B
:100ED0000E49496821F4741108430C494860012007
:100EE0000B490866FFF714FC054607E03DE0FFF7F5
:100EF0000FFC401B022801D903200FE603480068BD
:100F000000F000700028F2D02FE000000010024036
:100F10000000424280044242007000400020144918
:100F20000866FFF7F5FB054606E0FFF7F1FB401BFF
:100F3000022801D90320F1E50E48006800F0007096
:100F40000028F2D111E0E069012800D1E6E5094866
:100F5000466806F48031206A814204D106F470119B
:100F6000606A814201D00120D8E50020D6E500006A
:100F7000000042420010024070B504462546681E3B
:100F8000B0F1807F01D301200FE0681E4FF0E02117
:100F900048610F214FF0FF3001F01CF800204FF0A6
:100FA000E021886107200861002070BD30B502464D
:100FB0000B4600BF92F83C00012801D1022030BD51
:100FC000012082F83C0000BF022082F83D0010683A
:100FD00044681068816824F070041868044310683D
:100FE0004460104D1068A8420BD01068B0F1804FDB
:100FF00007D00D4D1068A84203D00C4D1068A842D0
:1010000005D121F0800158680143106881600120FA
:1010100082F83D0000BF002082F83C0000BF00BF06
:10102000CDE70000002C0140000400400008004013
:1010300010B504460CB9012010BD94F83D0028B944
:10104000002084F83C00204600F026F8022084F8B6
:101050003D00211D206800F0EBFC012084F84600D3
:1010600000BF84F83E0001213F200155402001557A
:101070004120015500BF00BF012084F842004320F9
:101080000155442001554520015500BF012084F839
:101090003D000020D0E7000008B5094A01689142F0
:1010A0000DD100BF0749896941F40061054A91618A
:1010B0001146896901F40061009100BF00BF08BDBD
:1010C000002C0140001002402DE9F04104460D467D
:1010D000002700BF94F83C00012802D10220BDE89F
:1010E000F081012084F83C0000BF022084F83D001C
:1010F0002068866826F0770626F47F46206886609A
:101100002868502833D00CDC202850D004DC00287C
:101110004BD0102851D149E0302849D040284CD13B
:1011200039E060282DD0702807D0B0F5805F03D05B
:10113000B0F5005F41D10DE041E0D5E902136A68E6
:10114000206800F0B7FC2068866846F077062068C3
:10115000866034E0D5E902136A68206800F0AAFCD2
:101160002068806840F480402168886027E0EA6851
:101170006968206800F00BFD5021206800F0A5FC94
:101180001DE0EA686968206800F014FD60212068AD
:1011900000F09BFC13E0EA686968206800F0F7FC47
:1011A0004021206800F091FC09E000BF00BF00BFB3
:1011B0002968206800F089FC01E0012700BF00BF1A
:1011C000012084F83D0000BF002084F83C0000BFEF
:1011D000384684E770B504460D4600BF94F83C00DD
:1011E000012801D1022070BD012084F83C0000BF1D
:1011F000022084F83D002946204600F06FFC48B1EB
:10120000012084F83D0000BF002084F83C0000BFAE
:101210000120E8E72068C06820F040002168C8602D
:101220002068C06820F480402168C860012084F8EC
:101230003D0000BF002084F83C0000BF00BFD2E7A3
:10124000704770472DE9F84F04462068056820680C
:10125000C668206847694FF00009CA4605F00F09C3
:10126000B9F1000F0AD105F0200038B106F02000D6
:1012700020B1204600F01AFDBDE8F88FB9F1000F4B
:101280007BD007F0010018B906F49070002874D0E4
:1012900005F0010030B106F4807018B1606C40F0C8
:1012A0000100606405F0040030B107F0010018B1DE
:1012B000606C40F00200606405F0020030B107F09D
:1012C000010018B1606C40F00400606405F0080093
:1012D00048B106F0200010B907F0010018B1606CA9
:1012E00040F008006064606C002845D005F02000E4
:1012F00028B106F0200010B1204600F0D7FC20688D
:101300004069C0F3801A606C00F0080010B9BAF1AF
:10131000000F2CD0204600F083FC2068406900F0CC
:10132000400000B300BF00BF2168143151E8001F26
:1013300021F040002168143141E80002002AF3D175
:1013400000BFE06B50B17748E16B4863E06BFEF79C
:10135000BBFF88B1E06B416B88470DE02046FFF78B
:1013600070FF09E009E02046FFF76BFF04E020462C
:10137000FFF767FF002060647EE7206B012877D1CC
:1013800005F01000002873D006F010000028FAD0F5
:1013900000BF00200090206800680090206840682E
:1013A000009000BF00BF2068406900F040000028A6
:1013B0005FD0E06B006840681FFA80F8B8F1000F5A
:1013C00055D0A08D404552DDA4F82E80E06B806999
:1013D000202843D000BF00BF21680C3151E8001F16
:1013E00021F4807021680C3141E80002002AF3D119
:1013F00000BF00BF00BF2168143151E8001F21F079
:1014000001002168143141E80002002AF3D100BF35
:1014100000BF00BF2168143151E8001F21F04000D7
:101420002168143141E80002002AF3D100BF2020D6
:1014300084F842000020206300BF00BF21680C3107
:1014400051E8001F21F0100021680C3141E8000232
:10145000002AF3D100BFE06BFEF70AFF02206063B1
:10146000A08DE28D801A81B22046FFF7E9FE03E7E6
:1014700042E0A08DE18D401A1FFA80F8E08DD0B3D4
:10148000B8F1000F37D000BF00BF21680C3151E820
:10149000001F21F4907021680C3141E80002002AFD
:1014A000F3D100BF00BF00BF2168143151E8001F15
:1014B00021F001002168143141E80002002AF3D133
:1014C00000BF202084F842000020206300BF00BF3E
:1014D00021680C3151E8001F21F0100021680C3107
:1014E00041E80002002AF3D100BF022060634146B8
:1014F0002046FFF7A5FEBFE605F0800030B106F0FC
:10150000800018B1204600F0CDFCB5E605F04000A3
:1015100030B106F0400018B1204600F0B7FBABE652
:1015200000BFA9E60D1C000810B504460CB9012047
:1015300010BDA06900B100E000BF94F8410028B9D7
:10154000002084F84000204600F02AF8242084F887
:1015500041002068C06820F400502168C86020461F
:1015600000F022FC2068006920F4904021680861A6
:101570002068406920F02A00216848612068C0681E
:1015800040F400502168C86000206064202084F886
:10159000410084F842000020606300BFC8E70000FB
:1015A00010B586B004460020029003900490059088
:1015B0003749206888422FD100BF3648806940F4FF
:1015C0008040344988610846806900F48040019079
:1015D00000BF00BF00BF0846806940F0040088617A
:1015E0000846806900F00400019000BF00BF481564
:1015F0000290022003900320059002A92648FEF7DE
:10160000E9FE4FF48060029000200390049002A94C
:101610002148FEF7DFFE39E020492068884235D1B5
:1016200000BF1C48C06940F400301A49C861084630
:10163000C06900F40030019000BF00BF00BF084641
:10164000806940F0040088610846806900F0040069
:10165000019000BF00BF04200290022003900320ED
:10166000059002A90C48FEF7B5FE08200290002064
:101670000390049002A90848FEF7ACFE0022052161
:101680002620FFF7D1F82620FFF7BEF806B010BDE0
:1016900000380140001002400008014000440040B2
:1016A00070472DE9F84F04460E46174699464FF00D
:1016B000000A94F84100202850D106B117B9012042
:1016C000BDE8F88F00206064212084F84100FFF716
:1016D0001FF88246A784E784A068B0F5805F04D134
:1016E000206910B90025B04602E035464FF00008E9
:1016F0001EE05346002280212046CDF8009000F0E5
:1017000001FC20B1202084F841000320D8E745B92E
:10171000B8F80000C0F308002168486008F102082A
:1017200003E02878216848606D1CE08C401EE0844E
:10173000E08C0028DDD15346002240212046CDF820
:10174000009000F0DFFB20B1202084F8410003204E
:10175000B6E7202084F841000020B1E70220AFE77F
:10176000704700BFFEE7000000B587B01C220749A4
:101770006846FEF725FD0021684600F045FD044956
:10178000086000F02BFA07B000BD000054310008DB
:101790000000002000B585B0002001900290039069
:1017A000049000BF3248806940F0040030498861ED
:1017B0000846806900F00400009000BF00BF00BF31
:1017C0000846806940F0080088610846806900F09A
:1017D0000800009000BF00BF0022C0212548FEF78E
:1017E00091FF002201212448FEF78CFFC0200190C8
:1017F00001200290002003900220049001A91D48BE
:10180000FEF7E8FD012001900290002003900220E5
:10181000049001A91848FEF7DDFD4FF480500190B7
:1018200000200290039001A91348FEF7D3FD4FF466
:1018300000500190002002900120039001A90E4861
:10184000FEF7C8FD4FF4004001900C4802900120C3
:10185000039001A90848FEF7BDFD002205212820BC
:10186000FEF7E2FF2820FEF7CFFF05B000BD000025
:101870000010024000080140000C0140000011105F
:1018800000B58BB000200790089009900A901421B1
:1018900002A8FEF7AEFC0020009001901A481B49F8
:1018A0000860002048600021184881604FF6FF71F1
:1018B000C1600021016141618161FFF7B9FB08B19D
:1018C000FEF7D3FC4FF48050079007A90F48FFF7AD
:1018D000FBFB08B1FEF7C9FC042002900020039036
:1018E00002A90A48FFF776FC08B1FEF7BEFC00200B
:1018F0000090019069460548FFF758FB08B1FEF7D4
:10190000B4FC0BB000BD0000002C0140F802002028
:1019100010B50B480B4908604FF4E13048600021D6
:1019200008488160C16001610C2141610021816131
:10193000C161FFF7F9FD08B1FEF797FC10BD00008B
:10194000003801404003002010B50B480B490860E7
:101950004FF4E1304860002108488160C1600161B6
:101960000C21416100218161C161FFF7DDFD08B1FA
:10197000FEF77BFC10BD00000044004088030020FF
:1019800000BFFEE700BFFEE708B508490968C908BF
:101990004FF47A72B1FBF2F14143009100BF00BFF6
:1019A00000994A1E00920029F9D108BD10000020BC
:1019B00000BF4FF4FA7000F016FCFAE710B5FEF71E
:1019C000ADFE01F091FA012801D001F0E3F910BD5C
:1019D00000B58FB0282105A8FEF70BFC142168463E
:1019E000FEF707FC022005900120099010200A90C4
:1019F00002200C9000210D910E9105A8FFF78AF8A6
:101A000008B1FEF732FC0F20009002200190002068
:101A100002904FF4806003900020049000216846FB
:101A2000FEF754FF08B1FEF720FC0FB000BD704771
:101A300010B502681C4B984208D0B0F1804F05D019
:101A40001A4B984202D01A4B984203D122F07002EE
:101A50004B681A43144B984208D0B0F1804F05D020
:101A6000124B984202D0124B984203D122F440729A
:101A7000CB681A4322F080034C6943EA04020260F7
:101A80008B68C3620B688362074B984201D10B6974
:101A9000036301234361036903F001031BB103697D
:101AA00023F00103036110BD002C0140000400403D
:101AB0000008004030B50C46816821F47F4142EABD
:101AC000032525432943816030BD0A46816821F002
:101AD000700142F007031943816070472DE9F04718
:101AE00005460C464FF000092868866826F0700607
:101AF0006068064326F0070620680643286886606B
:101B0000606800F00F0100293BD10011082838D28D
:101B1000DFE800F0333435360B272D04D4E9031306
:101B2000A2682868FFF7C6FF2EE02068052802D1CA
:101B30000120BDE8F0872868D0F820802868006A76
:101B400020F00100296808622868876927F0F007FB
:101B5000206947EA0017286887612868C0F8208054
:101B600012E02269A168286800F011F80CE02269EF
:101B7000A168286800F01EF806E000BF00BF00BFA3
:101B800002E04FF0010900BF00BF4846D1E730B581
:101B90000B461446026A056A25F001050562816953
:101BA00021F0F00141EA041122F00A021A43816196
:101BB000026230BD30B50B461446026A056A25F054
:101BC00010050562816921F4704141EA043122F077
:101BD000A00242EA03128161026230BD1CB50548D1
:101BE00004210023C822CDE9001003A1064801F01A
:101BF000EBF81CBD98000020765461736B5F437254
:101C000069746963616C0000092C000870B50546B1
:101C10006C6A0020E085E0842046FFF712FB70BD6F
:101C200000BF00BF02680C3252E8002F22F490710E
:101C300002680C3242E80013002BF3D100BF00BF52
:101C400000BF0268143252E8002F22F0010102683E
:101C5000143242E80013002BF3D100BF016B0129BD
:101C60000ED100BF00BF02680C3252E8002F22F0F4
:101C7000100102680C3242E80013002BF3D100BFC0
:101C8000202180F8421000210163704710B50446FE
:101C90002068C06820F040002168C860202084F8D7
:101CA00041002046FFF75CFD002010BDF8B504465A
:101CB00094F84200222875D1A068B0F5805F0CD15D
:101CC000206950B90025A66A20684068C0F3080062
:101CD0003080A06A801CA06215E0A56A0026A0687A
:101CE000B0F5805F03D0A06828B9206918B92068D2
:101CF0004068287004E02068406800F07F00287089
:101D0000A06A401CA062E08D401E80B2E0850028E1
:101D100046D12068C06820F020002168C860206893
:101D2000C06820F480702168C8602068406920F095
:101D3000010021684861202084F84200002060638F
:101D4000206B012826D10020206300BF00BF21683E
:101D50000C3151E8001F21F0100021680C3141E8DE
:101D60000002002AF3D100BF2068006800F01000D4
:101D700010280AD100BF0020009020680068009061
:101D800020684068009000BF00BFA18D2046FFF78B
:101D900057FA02E02046FFF783FC0020F8BD01E07F
:101DA0000020FBE70220F9E770B5044621680969C5
:101DB00021F44051E2681143226811612269A1684F
:101DC0001143626941EA02052168C96841F20C6267
:101DD000914329432268D1602168496921F4407107
:101DE000A2691143226851612D4A2168914202D1B2
:101DF000FEF748FE01E0FEF735FE00EBC00101EB07
:101E0000001162689200B1FBF2F100EBC00202EB3C
:101E1000001263689B00B2FBF3F26423B2FBF3F29F
:101E200002EBC20303EB0212A1EB8201322202EBAE
:101E300001116422B1FBF2F101F0F00100EBC002EC
:101E400002EB001263689B00B2FBF3F26423B2FB67
:101E5000F3F201EB021200EBC00101EB0011636829
:101E60009B00B1FBF3F100EBC00303EB00136668CA
:101E7000B600B3FBF6F36426B3FBF6F303EBC3063D
:101E800006EB0313A1EB8301322303EB011164235F
:101E9000B1FBF3F101F00F0111442268916070BDB4
:101EA00000380140014691F84100212828D1886876
:101EB000B0F5805F0BD1086948B90A6A1088C0F391
:101EC00008000B685860086A801C086205E00B6A0D
:101ED000581C086218780B685860C88C401E80B285
:101EE000C88458B90868C06820F080000B68D860C2
:101EF0000868C06840F040000B68D8600020704758
:101F00000220FCE72DE9F84304460D4617469846A3
:101F1000089E31E0701C70B3FEF7FAFBA0EB0800DE
:101F2000B04200D816B90320BDE8F8832068C06825
:101F300000F00400F8B1802D1ED0402D1CD0206888
:101F40000068C0F3C000B0B100BF0020009020685E
:101F50000068009020684068009000BF00BF2046E5
:101F6000FFF75EFE0820606400BF002084F8400098
:101F700000BF0120D8E7FFE7206800682840A8429A
:101F800001D1012000E00020B842C3D00020CBE7FF
:101F900010B50248FFF756F910BD00008803002075
:101FA00000BFFEE70FB4054B10B503A9044A029821
:101FB00000F034F810BC5DF814FB0000712100083B
:101FC000A000002002480068C0F302207047000013
:101FD0000CED00E010B5002804DB0A07130E054ADB
:101FE000135406E00A07140E034A00F00F031B1FE8
:101FF000D45410BD00E400E018ED00E002E008C891
:10200000121F08C1002AFAD170477047002001E072
:1020100001C1121F002AFBD1704700002DE9FF4FBC
:1020200089B09B460446002506E025280BD05A4679
:102030000B999047641C6D1C20780028F5D10DB0D9
:102040002846BDE8F08F0027B8460122474900E046
:10205000074314F8013F203B02FA03F00842F7D18E
:1020600020782E2819D114F8010F47F004072A28E8
:102070000ED06FF02F022078A0F1300109290CD882
:1020800008EB880102EB410100EB0108641CF2E758
:102090000A98641C50F8048B0A9020780028CED04F
:1020A000642808D0692806D075281ED05A460B9996
:1020B00090476D1C58E00A994FF00A0901C90A912E
:1020C000002802DA40422D2102E0390504D52B21F7
:1020D0008DF82010012103E0F90704D02021F7E753
:1020E0008A4608AE0DE00021FAE70A994FF00A0986
:1020F00001C90A91F7E74946FEF786F8303106F83C
:10210000011D0028F7D1ADEB060000F1200978078A
:1021100001D44FF00108C84502DDA8EB090000E03A
:1021200000208046002706E008A85A46C05D0B99AB
:1021300090476D1C7F1C5745F6DB04E030205A4663
:102140000B9990476D1CB8F10001A8F10108F5DC6E
:1021500005E016F8010B5A460B9990476D1CB9F132
:102160000001A9F10109F4DC641C65E709280100FC
:1021700013B50C464FF6FF73012269460248FFF77C
:1021800090FA00981CBD000088030020FEF7D2FAE8
:10219000FFF71EFCFFF7FEFAFFF7BAFBFFF7D4FBD1
:1021A000FFF76EFBFFF7E0FA00F029F811E00122DB
:1021B00011460848FEF7A6FA4FF4FA7000F013F83B
:1021C000002201210348FEF79DFA4FF4FA7000F057
:1021D0000AF8ECE7000C014001460020842901D0F8
:1021E000CA1C1044704770B5044625460DB12946F7
:1021F00000E00121084600F033FC002070BD10B55E
:1022000000F05CFC002010BD7FB504460D466069FF
:1022100098B1A06988B1B4F90800FFF7DDFF064660
:10222000D4E90510CDE9006102902B462269D4E97A
:10223000001000F0FBFD039013E0B4F90800FFF775
:10224000CBFF064603A8CDE90060238A9AB22B464D
:10225000D4E9001000F0B8FD012802D0002004B03D
:1022600070BD0398FBE700002DE9F04105460E46DE
:102270001C4807681C480068001D00F0EDFA50B9C2
:102280001948006890F82C10012088401749096807
:10229000814316480160681C38B936B1124801689C
:1022A000091D134800F022FB1AE07C190E48006853
:1022B0004460BC4207D20C480168091D0D48006803
:1022C00000F0FAFA0CE008480168091D0A480068A5
:1022D00000F0F2FA09480068844201D2074804601D
:1022E000BDE8F08128000020140000202C00002010
:1022F000AC0400201C000020180000204400002036
:1023000010B5044600F0FEFA23480068401C22493C
:1023100008602248006840B9204804600846006808
:1023200001280DD100F03EF90AE01D48006838B9D7
:102330001A480068C06AE16A884201D817480460F8
:1023400018480068401C1749086094F82C100120B8
:10235000884015490968084313490860E16A01EBA0
:102360008101124A02EB8100211D00F0BFFA00F04A
:10237000F3FA0B48006868B108480068C06AE16A6F
:10238000884207D24FF0805009490860BFF34F8F51
:10239000BFF36F8F10BD0000240000201400002048
:1023A00030000020400000202C000020D00300203E
:1023B00004ED00E010B516E000F0A4FA0C48C06887
:1023C000C468201D00F048FA0A480068401E094908
:1023D000086009480068401E0749086000F0BCFA20
:1023E000204600F00BF8044800680028E4D110BD36
:1023F00098040020240000202000002010B504468E
:1024000094F8510030B9206B00F0C4FA204600F077
:10241000C1FA1AE094F85100012803D1204600F0D7
:10242000B9FA12E094F85100022801D1012000E02D
:10243000002050B900BF502080F31188BFF34F8FA8
:10244000BFF36F8F00BF00BFFEE710BD30B54FF484
:102450002053174800F007042CB1C01D20F00700DE
:10246000134C041B1B1B0246124C22600024114D0E
:102470006C60D018083820F007000F4C2060002452
:102480000D4D2D686C600C4D2D682C601146441A62
:102490004C60094C24680C60084D4C682C60084D59
:1024A0004C682C604FF00044064D2C6030BD00009D
:1024B000C0040020500000205800002060000020D0
:1024C0005C0000206C00002000BFFFF773FF06488F
:1024D00000680128F9D94FF0805004490860BFF323
:1024E0004F8FBFF36F8FF0E7D003002004ED00E0C3
:1024F0002DE9FF5F81460E469246DDE90E7B109C7A
:10250000AAF10100216B01EB800828F0070808F010
:10251000070008B9012000E0002050B900BF50209A
:1025200080F31188BFF34F8FBFF36F8F00BF00BFE1
:10253000FEE786B1002507E0715D04F134004155E6
:10254000705D00B902E06D1C102DF5D300BF0021B5
:102550004320015502E0002084F83400072F00D307
:102560000627E76267640020A064201D00F0A1F93F
:1025700004F1180000F09DF92461C7F10700A06183
:1025800064620020E06484F8500049464046039AA3
:1025900000F050F92060BBF1000F01D0CBF80040F3
:1025A000BDE8FF9F10B5002407E004EB84010F4A4B
:1025B00002EB810000F070F9641C072CF5D30C4885
:1025C00000F06AF90B4800F067F90B4800F064F975
:1025D0000A4800F061F90A4800F05EF90448094928
:1025E000086004480849086010BD0000D0030020BE
:1025F0005C04002070040020840400209804002063
:10260000AC040020180000201C00002010B501467A
:10261000164800E0006803688B42FBD3024643681B
:1026200013448B4204D143684C6823444360014601
:102630000A464B6813440468A34211D10C4C03684A
:102640002468A34208D04B680468646823444B6044
:1026500003681B680B6005E0054B1B680B6001E01D
:1026600003680B60884200D0016010BD500000205C
:10267000580000200A490968096809B9012100E0E9
:10268000002121B14FF0FF31064A116006E00449F4
:102690000968C968C868034A41681160704700004A
:1026A00018000020440000200E480068401C08B9B3
:1026B000012000E0002050B900BF502080F31188B5
:1026C000BFF34F8FBFF36F8F00BF00BFFEE700BFA8
:1026D000502080F31188BFF34F8FBFF36F8F00BF7F
:1026E00000BFFEE7700000202DE9F04104464FF0E6
:1026F000000800F03BFA4948006808B9FFF7A6FE59
:10270000474800682040002870D1D4B1083404F054
:102710000700B0B104F00700C0F10800044404F061
:10272000070008B9012000E0002050B900BF502088
:1027300080F31188BFF34F8FBFF36F8F00BF00BFCF
:10274000FEE7002C52D03748006884424ED8364EFF
:102750003046056801E02E462D686868A04202D226
:1027600028680028F7D12D48006885423ED030689F
:1027700000F10808286830606868001B102819D923
:102780002F1907F0070008B9012000E0002050B918
:1027900000BF502080F31188BFF34F8FBFF36F8FBE
:1027A00000BF00BFFEE76868001B78606C603846B9
:1027B000FFF72CFF1B4968680968081A1949086067
:1027C0000846006819490968884203D2154800681C
:1027D0001649086012496868096808436860002063
:1027E000286013480068401C1149086000F030FC64
:1027F00008F0070008B9012000E0002050B900BF30
:10280000502080F31188BFF34F8FBFF36F8F00BF4D
:1028100000BFFEE74046BDE8F08100005800002000
:102820006C0000205C0000205000002060000020B0
:1028300064000020001F4FF080730360001F21F030
:1028400001030360001F034B03601438026020384B
:1028500070470000A926000801460A69D1E9013045
:102860009860D1E9010358605068884201D18868B6
:102870005060002008611068401E106010687047AA
:10288000034B0360034B0B60802313607047000011
:10289000A4000020F800002000F1080141604FF082
:1028A000FF31816000F10801C16001610021016018
:1028B000704700210161704710B502460B685C1C2F
:1028C0000CB9106907E002F1080000E040684468B4
:1028D00024689C42FAD944684C604C68A1608860C6
:1028E00041600A611468641C146010BD42684A604B
:1028F00093688B60936859609160086103685B1C02
:102900000360704700BF502080F31188BFF34F8FE2
:10291000BFF36F8F00BF0E480068401C0C49086071
:1029200008460068012812D10A480068C0B208B9F8
:10293000012000E0002050B900BF502080F3118832
:10294000BFF34F8FBFF36F8F00BF00BFFEE770472D
:102950007000002004ED00E00D48006850B900BF91
:10296000502080F31188BFF34F8FBFF36F8F00BFEC
:1029700000BFFEE706480068401E0549086008469B
:10298000006820B9002080F3118800BF00BF7047A5
:102990007000002070B506463546002E44D0083D34
:1029A0002C46224960680968084008B1012000E00F
:1029B000002050B900BF502080F31188BFF34F8F23
:1029C000BFF36F8F00BF00BFFEE7206808B901208A
:1029D00000E0002050B900BF502080F31188BFF301
:1029E0004F8FBFF36F8F00BF00BFFEE70F496068D6
:1029F00009680840C0B12068B0B90C49606809682E
:102A00008843606000F0B2F80949606809680844CA
:102A1000074908602046FFF7F9FD06480068401C9A
:102A20000449086000F014FB70BD00006C00002039
:102A30005C0000206800002000204FF0E0210861C9
:102A40008861064800684FF47A71B0FBF1F0401ECF
:102A50004FF0E02148610720086170471000002016
:102A600070B504460025D4B11248006808B90120A9
:102A700000E0002050B900BF502080F31188BFF360
:102A80004F8FBFF36F8F00BF00BFFEE700F06EF8FF
:102A900000212046FFF7E8FB00F0DAFA05463DB9D1
:102AA0004FF0805004490860BFF34F8FBFF36F8F22
:102AB00070BD00004C00002004ED00E010B586B0B1
:102AC00000200590049003AA04A905A8FFF7D8FEEA
:102AD0000022DDE904101346CDE9002102901CA17B
:102AE0001D48039A00F0A2F91C49086008460068D6
:102AF00008B1012400E00024012C15D100BF5020B2
:102B000080F31188BFF34F8FBFF36F8F00BF4FF07B
:102B1000FF30134908600120124908600020124963
:102B2000086000F0BBF810E0601C08B1012000E074
:102B3000002050B900BF502080F31188BFF34F8FA1
:102B4000BFF36F8F00BF00BFFEE706B010BD0000EF
:102B500049444C4500000000C924000848000020FA
:102B600044000020300000202800002002480068B7
:102B7000401C0149086070474C0000201D48006857
:102B800018B101201C49086032E000201A49086091
:102B90001A480068B0FA80F0C0F11F0101EB810013
:102BA000174A52F8200008B1012000E0002050B977
:102BB00000BF502080F31188BFF34F8FBFF36F8F9A
:102BC00000BF00BFFEE701EB81020D4B03EB82006B
:102BD00042685268426000F108024368934202D1A1
:102BE0004268526842604268D268064B1A6000BF71
:102BF000704700004C000020380000202C0000200E
:102C0000D00300201400002030E04FF48051184819
:102C1000FDF770FD68B9002408E0214615A0FFF714
:102C2000C1F9C820FFF71CFF601CC4B20A2CF4DBFA
:102C300019E04FF400510E48FDF75CFD98B9FFF71D
:102C400061FE002408E021460FA0FFF7ABF96420E5
:102C5000FFF706FF601CC4B20A2CF4DBFFF77CFE12
:102C60000A20FFF7FDFE3220FFF7FAFECDE7000055
:102C7000000C01406B6579312072756E202564204F
:102C800074696D65730D0A006B6579322072756E1B
:102C90002025642074696D65730D0A001CB53849E0
:102CA000084600780190FF200A4610700846007818
:102CB00000909DF8000000F0F0009DF80020904288
:102CC00001D1012000E0002050B900BF502080F366
:102CD0001188BFF34F8FBFF36F8F00BF00BFFEE7B8
:102CE0009DF8000000F05000264A10700720264A88
:102CF000106009E024480068401E234A10609DF8D7
:102D000000004006000E00909DF8000000F08000DA
:102D10008028EFD01C480068C0F10700042801D1CA
:102D2000012000E0002050B900BF502080F311883E
:102D3000BFF34F8FBFF36F8F00BF00BFFEE7124896
:102D400000680002104A10601046008800F4E0603D
:102D500010600B4A019810700C48006840F4700035
:102D60000A4908600846006840F070400860FFF7B4
:102D700063FE002006490860FDF7D6F900201CBD5F
:102D800000E400E0740000207800002020ED00E066
:102D90007000002010B500BF502080F31188BFF3F1
:102DA0004F8FBFF36F8F00BF00F0AEF818B14FF038
:102DB00080500449086000BF002080F3118800BFE4
:102DC00010BD000004ED00E02DE9FF4F85B0804606
:102DD00089461746DDE912ABB800FFF785FC0646C9
:102DE00056B15420FFF780FC04460CB1266304E082
:102DF0003046FFF7CFFD00E000248CB1002084F8BE
:102E00005100CDE900ABCDE902403A464946404683
:102E1000089BFFF76DFB2046FFF772FA012501E0E2
:102E20004FF0FF35284609B0BDE8F08F2DE9F04F8F
:102E300085B00746884691469A46DDE90EB6109C55
:102E40000EB1012000E0002050B900BF502080F3F7
:102E50001188BFF34F8FBFF36F8F00BF00BFFEE736
:102E60000CB1012000E0002050B900BF502080F3D9
:102E70001188BFF34F8FBFF36F8F00BF00BFFEE716
:102E8000542003900398542801D1012000E0002031
:102E900050B900BF502080F31188BFF34F8FBFF3AC
:102EA0006F8F00BF00BFFEE700BFB4B1AEB12546D3
:102EB0002C462E63022085F85100002004A95346B9
:102EC0004A46CDE900B1CDE9025041463846FFF708
:102ED0000FFB2846FFF714FA01E000200490049845
:102EE00005B0BDE8F08F00000549096809B9012067
:102EF00005E00449096809B9022000E00020704794
:102F0000300000204C0000202DE9F0414FF0000877
:102F10004448006800287CD143480068451C42486A
:102F2000056015BB41480068006808B9012000E051
:102F3000002050B900BF502080F31188BFF34F8F9D
:102F4000BFF36F8F00BF00BFFEE7384807683848FF
:102F50000068364908603648076036480068401CFB
:102F600034490860FFF786FB00BF3348006885429C
:102F70003CD300BF2D480068006808B9012000E07C
:102F8000002020B14FF0FF302B4908602DE027488A
:102F90000068C068C4686668B54202D22648066008
:102FA00023E0201DFFF758FCA06A18B104F11800B7
:102FB000FFF752FC94F82C10012088401F49096843
:102FC00008431E490860E16A01EB81011C4A02EBDB
:102FD0008100211DFFF78AFC1A49E06A0968C96A65
:102FE0008842C7D34FF00108C4E700BF1548006806
:102FF000C06A00EB8000124951F82000012801D975
:103000004FF001081048006808B14FF0010805E0D2
:10301000FFE70E480068401C0C4908604046BDE8C8
:10302000F08100004C000020280000201800002043
:103030001C0000203C000020440000202C00002048
:10304000D0030020140000203800002034000020AD
:1030500070B5002400263648006850B900BF5020E3
:1030600080F31188BFF34F8FBFF36F8F00BF00BF96
:10307000FEE7FFF747FC2E480068401E2C49086019
:103080000846006800284FD12A48006800284BD025
:1030900024E02948C068C46804F11800FFF7DCFB8D
:1030A000201DFFF7D9FB94F82C10012088402349FC
:1030B0000968084321490860E16A01EB8101204A5F
:1030C00002EB8100211DFFF711FC1E49E06A09682F
:1030D000C96A884202D301201B490860164800686B
:1030E00008B9012000E000200028D2D00CB1FFF781
:1030F000C1FA1648056865B100BFFFF705FF10B1BA
:103100000120114908606D1E002DF6D100200F49E5
:1031100008600D48006838B1012630070C49086086
:10312000BFF34F8FBFF36F8FFFF716FC304670BDB4
:103130004C00002024000020840400202C000020EB
:10314000D0030020140000203800002034000020AC
:1031500004ED00E09C310008B119000800000000F7
:1031600000000000800000000000000000000000DF
:1031700002030405060708090A0B0C0D0E0F1010B8
:103180000102000000000000000001020304060725
:103190000809000000000102030400006465666184
:1031A000756C745461736B00C83100080000002016
:1031B000A4000000FC1F00086C320008A4000020DE
:1031C0001C3000000C20000800000000000000007F
:1031D000100000000100000000127A000000000052
:1031E00000000000000000000000000000000000DF
:1031F00000000000000000000000000000000000CF
:1032000000000000000000000000000000000000BE
:1032100000000000000000000000000000000000AE
:10322000000000000000000000000000000000009E
:103230000000000000000000AAAAAAAA00000000E6
:10324000000000000000000000000000000000007E
:10325000000000000000000000000000000000006E
:0C3260000000000003000000000000005F
:04000005080000ED02
:00000001FF
